:100000000C9462000C948A000C948A000C948A0070
:100010000C948A000C948A000C948A000C948A0038
:100020000C948A000C948A000C948A000C94A2040C
:100030000C948A000C948A000C948A000C948A0018
:100040000C9458040C948A000C9426040C9400041C
:100050000C948A000C948A000C948A000C948A00F8
:100060000C948A000C948A000000000024002700F1
:100070002A0000000000250028002B0000000000DE
:1000800023002600290004040404040404040202DA
:100090000202020203030303030301020408102007
:1000A0004080010204081020010204081020000012
:1000B0000008000201000003040700000000000027
:1000C00000005E0511241FBECFEFD8E0DEBFCDBF1C
:1000D00011E0A0E0B1E0E0EAFCE102C005900D9281
:1000E000AE3CB107D9F722E0AEECB1E001C01D9201
:1000F000AA3AB207E1F710E0C2E6D0E004C02197C7
:10010000FE010E94700BC136D107C9F70E94D505C8
:100110000C944E0E0C940000AF92BF92CF92DF92DF
:10012000EF92FF920F931F93CF93DF936C017B01AC
:100130008B01040F151FEB015E01AE18BF08C0173D
:10014000D10759F06991D601ED91FC910190F081B0
:10015000E02DC6010995892B79F7C501DF91CF9173
:100160001F910F91FF90EF90DF90CF90BF90AF90D5
:100170000895FC01538D448D252F30E0842F90E0AD
:10018000821B930B541710F0CF9608950197089592
:10019000FC01918D828D981761F0A28DAE0FBF2F5B
:1001A000B11D5D968C91928D9F5F9F73928F90E0B1
:1001B00008958FEF9FEF0895FC01918D828D981720
:1001C00031F0828DE80FF11D858D90E008958FEF5D
:1001D0009FEF0895FC01918D228D892F90E0805C26
:1001E0009F4F821B91098F739927089582EE91E0AA
:1001F0000E94EA0021E0892B09F420E0822F089573
:1002000080E090E0892B29F00E94F60081110C9487
:1002100000000895FC01A48DA80FB92FB11DA35AA9
:10022000BF4F2C91848D90E001968F739927848F16
:10023000A689B7892C93A089B1898C918370806439
:100240008C93938D848D981306C00288F389E02DDA
:1002500080818F7D80830895EF92FF920F931F938B
:10026000CF93DF93EC0181E0888F9B8D8C8D981369
:100270001AC0E889F989808185FF15C09FB7F89475
:10028000EE89FF896083E889F989808183708064C1
:1002900080839FBF81E090E0DF91CF911F910F910C
:1002A000FF90EF900895F62E0B8D10E00F5F1F4F1B
:1002B0000F731127E02E8C8D8E110CC00FB607FC2A
:1002C000FACFE889F989808185FFF5CFCE010E94B8
:1002D0000A01F1CFEB8DEC0FFD2FF11DE35AFF4F1B
:1002E000F0829FB7F8940B8FEA89FB898081806246
:1002F000CFCFCF93DF93EC01888D8823B9F0AA8903
:10030000BB89E889F9898C9185FD03C0808186FDD0
:100310000DC00FB607FCF7CF8C9185FFF2CF80811F
:1003200085FFEDCFCE010E940A01E9CFDF91CF9189
:100330000895833081F028F4813099F08230A9F05B
:1003400008958730A9F08830C9F08430B1F48091E5
:1003500080008F7D03C0809180008F778093800024
:10036000089584B58F7784BD089584B58F7DFBCFC4
:100370008091B0008F778093B00008958091B00095
:100380008F7DF9CFCF93DF93282F30E0F901E2552D
:10039000FF4F8491F901E656FF4FD491F901EA57D6
:1003A000FF4FC491CC23A1F081110E949901EC2F41
:1003B000F0E0EE0FFF1FE458FF4FA591B491EC91D0
:1003C000ED2381E090E009F480E0DF91CF91089582
:1003D00080E090E0FACF1F93CF93DF93282F30E097
:1003E000F901E255FF4F8491F901E656FF4FD49190
:1003F000F901EA57FF4FC491CC23A9F0162F8111C0
:100400000E949901EC2FF0E0EE0FFF1FEE58FF4F16
:10041000A591B4918FB7F894EC91111108C0D095C3
:10042000DE23DC938FBFDF91CF911F910895DE2BE8
:10043000F8CFCF93DF9390E0FC01E656FF4F249175
:100440008A579F4FFC0184918823C9F090E0880F60
:10045000991FFC01E859FF4FA591B491FC01EE589A
:10046000FF4FC591D49161110DC09FB7F8948C9145
:10047000209582238C938881282328839FBFDF9136
:10048000CF910895623051F49FB7F8943C91822F38
:10049000809583238C93E8812E2BEFCF8FB7F89430
:1004A000EC912E2B2C938FBFEACF1F93CF93DF932A
:1004B000EC01162F88818C3008F050C061E0812F4C
:1004C0000E9419028881282F30E0F901EE0FFF1FEA
:1004D000E20FF31FE158FD4F1F736081607C612BB9
:1004E00060839EE8998394E69A832CE0622F0E94B1
:1004F000640B829FB001112430E020E0AB01420F79
:10050000531FFA01EE0FFF1FE40FF51FE158FD4FD7
:10051000908196FD16C02F5F3F4F2C30310571F74B
:1005200081110FC01092800082E0809381001092B0
:10053000850010928400B19A80916F008260809350
:100540006F00E8818E2F90E0FC01EE0FFF1FE80F97
:10055000F91FE158FD4F8081806480838881DF919D
:10056000CF911F9108951F93CF93DF93182FEB0125
:1005700061E00E941902209739F460E0812FDF9139
:10058000CF911F910C94EB01CF3FD10511F461E0A5
:10059000F5CFE12FF0E0E255FF4FE491E33031F188
:1005A00040F4E130B1F0E230E1F0C038D1057CF741
:1005B000E4CFE73029F1E83059F1E430B1F7809128
:1005C0008000806280938000D0938B00C0938A006B
:1005D00004C084B5806884BDC7BDDF91CF911F91F1
:1005E000089584B5806284BDC8BDF7CF8091800036
:1005F000806880938000D0938900C0938800EDCFFD
:100600008091B00080688093B000C093B300E5CFC4
:100610008091B00080628093B000C093B400DDCFC1
:100620008E50806480937C0080917A0080648093F7
:100630007A0080917A0086FDFCCF809178009091BD
:10064000790008953FB7F8948091D6019091D70131
:10065000A091D801B091D90126B5A89B05C02F3F24
:1006600019F00196A11DB11D3FBFBA2FA92F982FD8
:100670008827BC01CD01620F711D811D911D42E0D3
:10068000660F771F881F991F4A95D1F70895CF925B
:10069000DF92EF92FF92CF93DF93EC01603282E022
:1006A0007807CCF5653B710514F064EB70E0898147
:1006B00028E830E0281B310987FD3395220F331FCE
:1006C000220F331F6901330FEE08FF088A8128E5E6
:1006D00032E0281B310987FD3395220F331F220F8B
:1006E000331F032E000C440B550B2C193D094E09EA
:1006F0005F09DB0177FF02C0B0E0A0E00E9488093B
:1007000024EB30E040E050E00E945E09C20ED31EB0
:10071000E41EF51EB601E881EC3070F5298188E809
:1007200090E0821B910927FD9395880F991F880FF0
:10073000991F681779077CF02A8188E592E0821B6F
:10074000910927FD9395880F991F880F991F6817A6
:1007500079070CF4CB010297880F991F4FB7F894D3
:100760002E2F30E0F901EE0FFF1FE20FF31FE158CB
:10077000FD4F928381834FBFDF91CF91FF90EF9028
:10078000DF90CF90089561E080E00E94190260E060
:1007900081E00E94190261E082E00E94190260E09B
:1007A00083E00C94190283E10E9410038C3022E054
:1007B00092072CF4843F914024F082E0089580E079
:1007C000089581E00895CF93DF93FC01019000200C
:1007D000E9F73197AF01481B590BBC0182EE91E05C
:1007E0000E948C00EC0142E050E068E171E082EE92
:1007F00091E00E948C008C0F9D1FDF91CF91089596
:100800001F920F920FB60F9211242F933F934F9385
:100810005F936F937F938F939F93AF93BF93EF9368
:10082000FF9382EE91E00E940A01FF91EF91BF9148
:10083000AF919F918F917F916F915F914F913F9178
:100840002F910F900FBE0F901F9018951F920F922F
:100850000FB60F9211242F938F939F93EF93FF93D3
:10086000E091F201F091F3018081E091F801F091C3
:10087000F90182FD1BC090818091FB018F5F8F7316
:100880002091FC01821741F0E091FB01F0E0EE5174
:10089000FE4F958F8093FB01FF91EF919F918F9178
:1008A0002F910F900FBE0F901F9018958081F4CF5D
:1008B0001F920F920FB60F9211242F933F938F9395
:1008C0009F93AF93BF938091D2019091D301A09158
:1008D000D401B091D5013091D10123E0230F2D3700
:1008E00058F50196A11DB11D2093D1018093D2012D
:1008F0009093D301A093D401B093D5018091D601F8
:100900009091D701A091D801B091D9010196A11D74
:10091000B11D8093D6019093D701A093D801B093D5
:10092000D901BF91AF919F918F913F912F910F90DE
:100930000FBE0F901F90189526E8230F0296A11D59
:10094000B11DD2CF1F920F920FB60F9211242F9389
:100950003F934F935F936F937F938F939F93AF9347
:10096000BF93CF93DF93EF93FF938091D001C0911A
:10097000A302D0E087FF24C010928500109284006B
:100980008091D0018F5F8093D0018091D001082E9B
:10099000000C990B8C179D0724F48091D0018C30AA
:1009A000C4F18091840090918500049680349C4924
:1009B00008F47AC08091840090918500049676C0F6
:1009C0008091D001082E000C990B8C179D07C4F65E
:1009D000E091D0018E2FEE0F990BFC01EE0FFF1F5F
:1009E000E80FF91FE158FD4F808186FFC9CFE091E4
:1009F000D0018E2FEE0F990BFC01EE0FFF1FE80FB9
:100A0000F91FE158FD4F808160E08F730E94EB0178
:100A1000B7CF2091840030918500E091D0018E2FD6
:100A2000EE0F990BFC01EE0FFF1FE80FF91FE158C5
:100A3000FD4F81819281820F931F90938900809353
:100A40008800E091D0018E2FEE0F990BFC01EE0F84
:100A5000FF1FE80FF91FE158FD4F808186FF11C08D
:100A6000E091D0018E2FEE0F990BFC01EE0FFF1FCE
:100A7000E80FF91FE158FD4F808161E08F730E94FC
:100A8000EB01FF91EF91DF91CF91BF91AF919F91DA
:100A90008F917F916F915F914F913F912F910F9027
:100AA0000FBE0F901F90189580E49CE990938900E9
:100AB000809388008FEF8093D001E3CF1092E501FF
:100AC0001092E40188EE93E0A0E0B0E08093E601AC
:100AD0009093E701A093E801B093E9018AE091E0E7
:100AE0009093E3018093E20185EC90E09093EF0115
:100AF0008093EE0184EC90E09093F1018093F001FB
:100B000080EC90E09093F3018093F20181EC90E00F
:100B10009093F5018093F40182EC90E09093F701BB
:100B20008093F60186EC90E09093F9018093F801B0
:100B30001092FB011092FC011092FD011092FE0137
:100B40008091A3028C3048F591E0980F9093A30216
:100B50008093A70290E0FC01EE0FFF1FE80FF91F42
:100B6000E158FD4F88EB9BE0928381838091A30243
:100B70008C30B8F491E0980F9093A3028093A40274
:100B800090E0FC01EE0FFF1FE80FF91FE158FD4F49
:100B900088EB9BE09283818308958FEF8093A70277
:100BA000E5CF8FEF8093A4020895CF93DF93CDB765
:100BB000DEB7E2970FB6F894DEBF0FBECDBF7894D4
:100BC00084B5826084BD84B5816084BD85B5826052
:100BD00085BD85B5816085BD80916E008160809303
:100BE0006E0010928100809181008260809381006C
:100BF000809181008160809381008091800081607C
:100C0000809380008091B10084608093B1008091D6
:100C1000B00081608093B00080917A0084608093FE
:100C20007A0080917A00826080937A0080917A00C5
:100C3000816080937A0080917A00806880937A0046
:100C40001092C100E091F201F091F30182E0808303
:100C5000E091EE01F091EF011082E091F001F0914E
:100C6000F1018FEC80831092FA01E091F601F0918E
:100C7000F70186E08083E091F401F091F501808135
:100C800080618083E091F401F091F50180818860BA
:100C90008083E091F401F091F50180818068808388
:100CA000E091F401F091F50180818F7D80830E94B5
:100CB000C3030E94C30362E08EE00E94190262E057
:100CC0008FE00E94190262E080E10E9419026AE04E
:100CD00070E084EA92E00E94550269E070E087EAE1
:100CE00092E00E94550261E084E00E94190261E0F6
:100CF00087E00E94190261E088E00E94190261E029
:100D00008BE00E94190261E08CE00E94190261E010
:100D10008DE00E94190261E084E00E94190243E222
:100D2000242E312C5AE3852E912CA12CB12C8E012E
:100D30000F5F1F4F60E080E00E94EB0183E090E0D6
:100D40000197F1F761E080E00E94EB01C10101979A
:100D5000F1F760E080E00E94EB010E9422036B014A
:100D60007C01C092DA01D092DB01E092DC01F092CA
:100D7000DD0181E00E94C201892B71F40E942203EF
:100D80006C197D098E099F096133754781059105AD
:100D900080F320E335E729C00E9422036B017C0128
:100DA000C092DA01D092DB01E092DC01F092DD0129
:100DB00081E00E94C201019771F40E9422036C1924
:100DC0007D098E099F09613375478105910580F37F
:100DD00025E032E00AC00E9422036C197D098E09C9
:100DE0009F09A50194010E9490093F932F938BE1E5
:100DF00091E09F938F931F930F930E94760BC801EE
:100E00000E94E30360E082E00E94EB0183E090E057
:100E10000197F1F761E082E00E94EB01C1010197C7
:100E2000F1F760E082E00E94EB010E9422036B0177
:100E30007C01C092DA01D092DB01E092DC01F092F9
:100E4000DD010F900F900F900F900F900F9083E0A7
:100E50000E94C201892B09F027C10E9422036C194C
:100E60007D098E099F09613375478105910578F3E6
:100E700025E032E03F932F9381E391E09F938F939E
:100E80001F930F930E94760BC8010E94E30381E138
:100E90000E9410038093E0019093E1019F938F9350
:100EA00086E491E09F938F931F930F930E94760B9C
:100EB000C8010E94E3030E94D3038093050182E1ED
:100EC0000E9410030FB6F894DEBF0FBECDBF843F63
:100ED00031E093070CF410C18C3092400CF40EC139
:100EE00081E08093040180E10E94C201892B09F412
:100EF00007C18FE00E94C201892B09F003C182E083
:100F00008093DF018EE00E94100321E0892B09F01D
:100F100020E02093DE0183E10E9410039C01245F06
:100F200031402831310510F480E092E090930301C4
:100F30008093020182E10E9410039C01245F3140F2
:100F40002831310510F480E092E090930101809304
:100F500000010E94D3031F928F9384E591E09F9339
:100F60008F931F930F930E94760BC8010E94E30397
:100F7000809104011F928F9385E691E09F938F9358
:100F80001F930F930E94760BC8010E94E303809188
:100F9000DF011F928F9386E791E09F938F931F93BA
:100FA0000F930E94760BC8010E94E30380E10E9428
:100FB000C2010FB6F894DEBF0FBECDBF892B09F476
:100FC000A3C08FE00E94C201892B09F09FC082E07C
:100FD0001F928F9385E891E09F938F931F930F93B8
:100FE0000E94760BC8010E94E3038091DE011F92EC
:100FF0008F9385E991E09F938F931F930F930E94A6
:10100000760BC8010E94E3038EE00E94C20121E03A
:10101000892B09F020E01F922F9383EA91E09F93A0
:101020008F931F930F930E94760BC8010E94E303D6
:10103000809103018F93809102018F9382EB91E065
:101040009F938F931F930F930E94760BC8010E946A
:10105000E303809101018F93809100018F9380ECD5
:1010600091E09F938F931F930F930E94760BC8017B
:101070000E94E303D09005010FB6F894DEBF0FBEC7
:10108000CDBF92E0D91244C070E060E085E00E94DC
:10109000B30270E060E086E00E94B30261E08CE0A1
:1010A0000E94EB0160E05FC00E9422036B017C01A3
:1010B000C092DA01D092DB01E092DC01F092DD0116
:1010C00083E00E94C201019761F40E9422036C191F
:1010D0007D098E099F09613375478105910580F36C
:1010E000C7CE0E9422036C197D098E099F09A501B4
:1010F00094010E949009BECE80E0F3CE82E0F1CE52
:1011000081E0FECE80E0FCCE81E062CF80E060CF67
:10111000E0900201F0900301F7FE03C02FEFE21A06
:10112000F20AF594E79470E060E0D11029C086E0FF
:101130000E94B302B7016F3F710514F46FEF70E0C6
:101140006F3F31E0730714F06EEF71E06F5F71096C
:1011500085E00E94B30260E08CE00E94EB0131E088
:1011600061E0D3129FCF8DE00E94EB01F09004016B
:10117000F1101AC061E08BE00E94EB0160E01CC03E
:1011800085E00E94B302C701F7FE02C090E080E054
:101190008F3F910519F014F08FEF90E06FEF70E042
:1011A000681B790B86E0D5CF60E08BE00E94EB01F5
:1011B00081E061E0F812E2CF88E00E94EB016091EB
:1011C000000170910101072E000C880B990B0E9401
:1011D000D80A26E636E648E051E40E942E0A20E0CE
:1011E00030E040EF51E40E94C2090E94A00A7B0156
:1011F00097E9E916F1041CF026E9E22EF12C2EE124
:10120000E216F1041CF49EE1E92EF12CB70187EA05
:1012100092E00E944703B70184EA92E00E944703EC
:101220008091DE0161E0813009F060E084E00E949D
:10123000EB018091DF018130E9F58091E00190912F
:10124000E10181309240C4F161E087E00E94EB014E
:101250000E9422032B013C0180EDC82E87E0D82E8E
:10126000E12CF12C0E942203641975098609970963
:10127000683E734081059105A8F381E0C81AD10842
:10128000E108F10898EE490E93E0591E611C711CAB
:10129000C114D104E104F10429F780E090E0892B26
:1012A00009F448CD0E94F600882309F443CD0E943A
:1012B000000040CD823041F260E0C7CF052E97FBA1
:1012C0001EF400940E94750957FD07D00E949009F2
:1012D00007FC03D04EF40C94750950954095309559
:1012E00021953F4F4F4F5F4F089590958095709592
:1012F00061957F4F8F4F9F4F08950E94B209A59F20
:10130000900DB49F900DA49F800D911D1124089500
:10131000B7FF0C947D090E947D09821B930B0895F1
:10132000A1E21A2EAA1BBB1BFD010DC0AA1FBB1FE9
:10133000EE1FFF1FA217B307E407F50720F0A21B5B
:10134000B30BE40BF50B661F771F881F991F1A94C8
:1013500069F760957095809590959B01AC01BD01F2
:10136000CF010895A29FB001B39FC001A39F700D4C
:10137000811D1124911DB29F700D811D1124911D9D
:1013800008955058BB27AA270E94D9090C942A0B0C
:101390000E941C0B38F00E94230B20F039F49F3F71
:1013A00019F426F40C94190B0EF4E095E7FB0C9459
:1013B000130BE92F0E943B0B58F3BA176207730710
:1013C0008407950720F079F4A6F50C945D0B0EF4D4
:1013D000E0950B2EBA2FA02D0B01B90190010C0145
:1013E000CA01A0011124FF27591B99F0593F50F45D
:1013F000503E68F11A16F040A22F232F342F4427B5
:10140000585FF3CF469537952795A795F0405395AC
:10141000C9F77EF41F16BA0B620B730B840BBAF07C
:101420009150A1F0FF0FBB1F661F771F881FC2F7E7
:101430000EC0BA0F621F731F841F48F487957795FB
:101440006795B795F7959E3F08F0B0CF9395880FB5
:1014500008F09927EE0F9795879508950E94420A04
:101460000C942A0B0E94230B58F00E941C0B40F096
:1014700029F45F3F29F00C94130B51110C945E0B6F
:101480000C94190B0E943B0B68F39923B1F355237D
:1014900091F3951B550BBB27AA2762177307840787
:1014A00038F09F5F5F4F220F331F441FAA1FA9F31D
:1014B00035D00E2E3AF0E0E832D091505040E6950B
:1014C000001CCAF72BD0FE2F29D0660F771F881F6C
:1014D000BB1F261737074807AB07B0E809F0BB0B5F
:1014E000802DBF01FF2793585F4F3AF09E3F510573
:1014F00078F00C94130B0C945E0B5F3FE4F3983E72
:10150000D4F3869577956795B795F7959F5FC9F75B
:10151000880F911D9695879597F90895E1E0660FDC
:10152000771F881FBB1F621773078407BA0720F055
:10153000621B730B840BBA0BEE1F88F7E0950895BE
:101540000E94A70A6894B1110C945E0B08950E9442
:10155000430B88F09F5798F0B92F9927B751B0F0F7
:10156000E1F0660F771F881F991F1AF0BA95C9F727
:1015700014C0B13091F00E945D0BB1E008950C945D
:101580005D0B672F782F8827B85F39F0B93FCCF310
:10159000869577956795B395D9F73EF490958095A4
:1015A000709561957F4F8F4F9F4F0895E89409C0C4
:1015B00097FB3EF490958095709561957F4F8F4F86
:1015C0009F4F9923A9F0F92F96E9BB279395F6959C
:1015D000879577956795B795F111F8CFFAF4BB0F1A
:1015E00011F460FF1BC06F5F7F4F8F4F9F4F16C07E
:1015F000882311F096E911C0772321F09EE8872F08
:10160000762F05C0662371F096E8862F70E060E0C3
:101610002AF09A95660F771F881FDAF7880F96953C
:10162000879597F9089597F99F6780E870E060E0E3
:1016300008959FEF80EC089500240A94161617066B
:1016400018060906089500240A94121613061406B3
:1016500005060895092E0394000C11F4882352F016
:10166000BB0F40F4BF2B11F460FF04C06F5F7F4FCE
:101670008F4F9F4F089557FD9058440F551F59F0B5
:101680005F3F71F04795880F97FB991F61F09F3F6F
:1016900079F087950895121613061406551FF2CF98
:1016A0004695F1DF08C0161617061806991FF1CFE8
:1016B00086957105610508940895E894BB2766270F
:1016C0007727CB0197F90895991B79E004C0991FFA
:1016D000961708F0961B881F7A95C9F7809508958C
:1016E000EE0FFF1F0590F491E02D0994AEE0B0E0FD
:1016F000ECE7FBE00C94250E0D891E8986E08C83B7
:101700001A8309838FEF9FE79E838D83AE01475E27
:101710005F4F6F89788DCE0101960E94990B2F81C2
:101720003885020F131FF80110822E96E4E00C9406
:10173000410EABE0B0E0EFE9FBE00C94170E7C014A
:101740003B018A01FC0117821682838181FFC8C197
:10175000CE0101965C01F7019381F30193FD859120
:1017600093FF81913F01882309F453C1853239F4F5
:1017700093FD859193FF81913F01853229F4B70153
:1017800090E00E94890DE7CF912C212C312CFFE1B4
:10179000F31538F08B3211F190F4803209F1833275
:1017A00029F137FC3CC020ED280F2A3050F536FED9
:1017B00020C08AE0989E200D1124922E06C08D3202
:1017C00091F0803371F7689430F8F30193FD8591BF
:1017D00093FF81913F018111DACF21C0689431F8E4
:1017E000689432F8F2CF689433F8EFCF689434F805
:1017F000ECCFEAE02E9E200D1124222E689435F8BD
:10180000E4CF8E3229F436FC04C1689436F8DDCF7B
:101810008C3619F4689437F8D8CF8836B1F2982FFF
:101820009F7D95549330E0F08336A1F18337C1F169
:10183000833509F063C02801F2E04F0E511CF80116
:10184000C080D180692D70E036FC02C06FEF7FEF61
:10185000C6010E94730D4C01689437F882010AC0DA
:101860000C5F1F4FFFE3F98388248394912C65015B
:10187000E89437F833FE2DC0522C8114910471F591
:10188000552009F468CFB70180E290E00E94890DED
:101890005A94F6CFF801808189830E5F1F4FE4CF01
:1018A0002801F2E04F0E511CF801C080D180692D53
:1018B00070E036FC02C06FEF7FEFC6010E947E0D24
:1018C0004C018201D5CFB70180E290E00E94890DE2
:1018D0002A942814190409F0B0F7CECFF60137FC8A
:1018E000859137FE81916F01B70190E00E94890DCB
:1018F00051105A94F1E08F1A9108BFCF843619F035
:10190000893609F077C0F80137FE6BC060817181BC
:10191000828193810C5F1F4FF32DFF763F2E97FF3F
:1019200009C090958095709561957F4F8F4F9F4F1F
:10193000689437F82AE030E0A5010E94B90DC82E5E
:10194000CA188C2C432C36FE0CC0E89440F8C914FD
:1019500040F434FE05C032FC03C0F32DFE7E4F2E52
:10196000892C44FE95C0FE01EC0DF11D8081803371
:1019700009F087C0242D297E422E842D8870582E90
:1019800043FC95C040FE8FC09C2C821418F42C0C94
:10199000922C981844FE91C0B70180E390E00E9419
:1019A000890D42FE09C088E790E041FE02C088E54B
:1019B00090E0B7010E94890DC91408F48AC0CA9446
:1019C000D12C9FEFC91AD90ACA0CDB1CF6018291EF
:1019D0006F01B70190E00E94890DAC14BD04B1F70E
:1019E0004FCF60817181072E000C880B990B0E5F21
:1019F0001F4F92CFD32CE894D4F82AE030E08537FB
:101A000039F1232D297FD22E8F3601F148F4883504
:101A1000A9F0F701868197812B96E2E10C94330EB1
:101A2000803749F08837A9F7D4FE02C06894D2F80D
:101A300020E130E00DC06894D4F8F6CF34FE03C046
:101A4000822F8660D82E20E132E002C028E030E00C
:101A5000F801D7FE0FC060817181828193810C5F94
:101A60001F4FA5010E94B90DC82ECA183D2CE8943D
:101A700037F867CF6081718190E080E00E5F1F4F83
:101A8000F0CF42FC02C0839478CF8394839475CFC7
:101A9000842D867809F471CFF6CFB70180E290E00B
:101AA0000E94890D83948214C0F3512C73CF522C61
:101AB0005818821408F46ECFF8CF842D867809F474
:101AC0007BCF8BE241FE80E247FC8DE2B70190E0E4
:101AD00071CFB70180E390E00E94890D9A946CCF9A
:101AE0008FEF9FEF99CFFC0105906150704001107E
:101AF000D8F7809590958E0F9F1F0895FC01615037
:101B0000704001900110D8F7809590958E0F9F1F1F
:101B100008950F931F93CF93DF93182F092FEB0195
:101B20008B8181FD09C01FEF0FEF812F902FDF9177
:101B3000CF911F910F91089582FF14C02E813F8194
:101B40008C819D81281739073CF4E881F981CF0108
:101B500001969983888310838E819F8101969F834C
:101B60008E83E3CFE885F985812F0995892BA1F331
:101B7000DACFFA01AA27283051F1203181F1E89417
:101B80006F936E7F6E5F7F4F8F4F9F4FAF4FB1E070
:101B90003ED0B4E03CD0670F781F891F9A1FA11D6B
:101BA000680F791F8A1F911DA11D6A0F711D811D6C
:101BB000911DA11D20D009F468943F912AE0269F31
:101BC00011243019305D3193DEF6CF010895462F90
:101BD0004770405D4193B3E00FD0C9F7F6CF462F71
:101BE0004F70405D4A3318F0495D31FD40524193DA
:101BF00002D0A9F7EACFB4E0A69597958795779597
:101C00006795BA95C9F700976105710508959B011D
:101C1000AC010A2E06945795479537952795BA95A6
:101C2000C9F7620F731F841F951FA01D08952F927F
:101C30003F924F925F926F927F928F929F92AF925C
:101C4000BF92CF92DF92EF92FF920F931F93CF93A9
:101C5000DF93CDB7DEB7CA1BDB0B0FB6F894DEBF40
:101C60000FBECDBF09942A88398848885F846E8466
:101C70007D848C849B84AA84B984C884DF80EE80B0
:101C8000FD800C811B81AA81B981CE0FD11D0FB6B9
:101C9000F894DEBF0FBECDBFED010895F894FFCFDD
:101CA000000200020202000000002C018C00B900BA
:101CB0007901EA00C800DC000D0A00446973746110
:101CC0006E63652046726F6E743A20256420636DE2
:101CD0000044697374616E636520526561723A20D5
:101CE000256420636D004C756D696E6163653A20F3
:101CF0002564200044726976696E67204469723AEF
:101D000020256420005374656572696E67446972AA
:101D10003A20256420004C69676874537461743AF2
:101D200020256420004C6967687453746174323AEA
:101D30002025642000486F726E537461743A202528
:101D4000642000486F726E53746174323A202564C7
:101D5000200073706565647369673A20256420000C
:0E1D600073746565727369673A20256420000C
:00000001FF
