:100000000C9434000C9446000C9446000C9446006A
:100010000C9446000C9446000C9446000C94460048
:100020000C9446000C9446000C9446000C94460038
:100030000C9446000C9446000C9446000C94460028
:100040000C9448000C9446000C9446000C94460016
:100050000C9446000C9446000C9446000C94460008
:100060000C9446000C94460011241FBECFEFD8E03C
:10007000DEBFCDBF21E0A0E0B1E001C01D92A930FC
:10008000B207E1F70E9492000C943E020C9400002B
:100090001F920F920FB60F9211242F933F938F93BD
:1000A0009F93AF93BF938091050190910601A0911A
:1000B0000701B09108013091040123E0230F2D378F
:1000C00020F40196A11DB11D05C026E8230F02965C
:1000D000A11DB11D20930401809305019093060199
:1000E000A0930701B0930801809100019091010154
:1000F000A0910201B09103010196A11DB11D809351
:10010000000190930101A0930201B0930301BF91FC
:10011000AF919F918F913F912F910F900FBE0F90B4
:100120001F901895789484B5826084BD84B58160F1
:1001300084BD85B5826085BD85B5816085BD8091B2
:100140006E00816080936E0010928100809181002A
:100150008260809381008091810081608093810022
:10016000809180008160809380008091B1008460E4
:100170008093B1008091B00081608093B000809145
:100180007A00846080937A0080917A008260809304
:100190007A0080917A00816080937A0080917A0061
:1001A000806880937A001092C1008AB18FEF8AB97B
:1001B00087B187B980917A00806880937A005BE587
:1001C000352E60E0A62E60E0B62ECEEFD0E31DE621
:1001D00009E783E3982E9BEF892E2FE7722E30E7F5
:1001E000632E4FE5542E4424439480917C00807FFD
:1001F00080937C0080917C00806480937C0080915F
:100200007C0080937C0080917A00806480937A00E7
:1002100080917A0086FDFCCF609178007091790022
:10022000072E000C880B990B0E94DA016B017C01F0
:1002300020E030E845E654E40E94D30187FF94C0F3
:1002400024E13EE648E454E4C701B6010E943902C5
:1002500018160CF469C026E636EE46E454E4C701ED
:10026000B6010E94390218160CF466C028EB3EE570
:1002700045E454E4C701B6010E94390218160CF493
:1002800063C023E333E143E454E4C701B6010E94B1
:10029000390218160CF460C02EEA37EC40E454E43E
:1002A000C701B6010E94390218160CF46DC022E590
:1002B00038EB4DE354E4C701B6010E943902181629
:1002C0000CF465C024EA30E34CE354E4C701B60102
:1002D0000E94390218160CF45DC028E431E249E3AB
:1002E00054E4C701B6010E94390218160CF455C037
:1002F0002DE33AE844E354E4C701B6010E94390211
:1003000018160CF44DC02DE33AE844E354E4C70159
:10031000B6010E94D301881F8827881F842590E09A
:1003200091958195910922C08BB889E090E0843045
:10033000910529F49BB821C07BB888E090E0833018
:10034000910529F40BB919C06BB887E090E08230B1
:10035000910529F41BB911C05BB886E090E08130AB
:10036000910541F4DBB909C08FEF9FEF853091050E
:10037000F1F63BB8892B09F4CBB9A114B10409F407
:1003800034CF0E94000021CF85E090E0EFCF84E0E1
:1003900090E0ECCF83E090E0E9CF82E090E0E6CF20
:1003A00081E090E0E3CF0E94150208F481E0089517
:1003B000E89409C097FB3EF49095809570956195FF
:1003C0007F4F8F4F9F4F9923A9F0F92F96E9BB27B5
:1003D0009395F695879577956795B795F111F8CF31
:1003E000FAF4BB0F11F460FF1BC06F5F7F4F8F4F9C
:1003F0009F4F16C0882311F096E911C0772321F092
:100400009EE8872F762F05C0662371F096E8862F29
:1004100070E060E02AF09A95660F771F881FDAF780
:10042000880F9695879597F90895990F0008550FAD
:10043000AA0BE0E8FEEF16161706E807F907C0F06A
:1004400012161306E407F50798F0621B730B840B72
:10045000950B39F40A2661F0232B242B252B21F44C
:1004600008950A2609F4A140A6958FEF811D811DEC
:1004700008950E94150208F48FEF0895F894FFCFB5
:00000001FF
