:100000000C9462000C948A000C948A000C948A0070
:100010000C948A000C948A000C948A000C941703A8
:100020000C948A000C948A000C948A000C94BE07ED
:100030000C948A000C948A000C948A000C948A0018
:100040000C9475020C948A000C94E5020C94BF0287
:100050000C948A000C948A000C948A000C948A00F8
:100060000C948A000C948A000000000024002700F1
:100070002A0000000000250028002B0000000000DE
:1000800023002600290004040404040404040202DA
:100090000202020203030303030301020408102007
:1000A0004080010204081020010204081020000012
:1000B0000008000201000003040700000000000027
:1000C0000000240C11241FBECFEFD8E0DEBFCDBF4F
:1000D00012E0A0E0B1E0E8EBFEE102C005900D9275
:1000E000AE34B107D9F723E0AEE4B2E001C01D920F
:1000F000A734B207E1F710E0C2E6D0E004C02197D0
:10010000FE010E940C0DC136D107C9F70E941909E2
:100110000C945A0F0C9400008E3008F08E508770AB
:10012000806480937C0080917A00806480937A0060
:1001300080917A0086FDFCCF809178002091790033
:1001400090E0922B08953FB7F89480916A029091C5
:100150006B02A0916C02B0916D0226B5A89B05C000
:100160002F3F19F00196A11DB11D3FBFBA2FA92F36
:10017000982F8827820F911DA11DB11DBC01CD01B3
:1001800042E0660F771F881F991F4A95D1F708959F
:10019000CF92DF92EF92FF920F931F93CF93DF9353
:1001A0006C017A018B01C0E0D0E0CE15DF0581F053
:1001B000D8016D918D01D601ED91FC910190F081F6
:1001C000E02DC6010995892B11F02196EECF7E0115
:1001D000C701DF91CF911F910F91FF90EF90DF90BA
:1001E000CF900895089580E090E00895FC01538D2C
:1001F000448D252F30E0842F90E0821B930B541701
:1002000010F0CF96089501970895FC01918D828D8D
:10021000981761F0828DDF01A80FB11D5D968C915A
:10022000928D9F5F9F73928F90E008958FEF9FEF65
:100230000895FC01918D828D981731F0828DE80F21
:10024000F11D858D90E008958FEF9FEF0895FC01DB
:10025000918D228D892F90E0805C9F4F821B9109A8
:100260008F739927089582E792E00E94270121E089
:10027000892B09F420E0822F0895FC01848DDF0191
:10028000A80FB11DA35ABF4F2C91848D90E0019609
:100290008F739927848FA689B7892C93A089B189F8
:1002A0008C91837080648C93938D848D981306C099
:1002B0000288F389E02D80818F7D80830895EF92FD
:1002C000FF920F931F93CF93DF93EC0181E0888F10
:1002D0009B8D8C8D981305C0E889F989808185FDF7
:1002E00026C0F62E0B8D10E00F5F1F4F0F731127E6
:1002F000E02E8C8DE8120CC00FB607FCFACFE8890F
:10030000F989808185FFF5CFCE010E943D01F1CFB3
:100310008B8DFE01E80FF11DE35AFF4FF0829FB76E
:10032000F8940B8FEA89FB89808180620AC09FB7AD
:10033000F894EE89FF896083E889F9898081837068
:10034000806480839FBF81E090E0DF91CF911F9117
:100350000F91FF90EF900895CF93DF93EC01888D7C
:100360008823C9F0EA89FB89808185FD05C0A889B9
:10037000B9898C9186FD0FC00FB607FCF5CF80813F
:1003800085FFF2CFA889B9898C9185FFEDCFCE0189
:100390000E943D01E7CFDF91CF91089580E090E08A
:1003A000892B29F00E94330181110C9400000895DB
:1003B00028982B9810925E02089582E10E948C008A
:1003C000843F21E092072CF08C30924024F482E0AC
:1003D000089580E0089581E0089581E080935E02B1
:1003E0000E94DD01811103C02B9A28980895289A54
:1003F0002B98089583E10E948C008C3022E09207B4
:100400002CF4843F914024F082E0089580E0089528
:1004100081E008951F93CF93DF93182FEB0161E0E4
:100420000E947F08209711F460E004C0CF3FD105FF
:1004300039F461E0812FDF91CF911F910C948F07E8
:10044000E12FF0E0E255FF4FE491E330F9F048F49A
:10045000E130B9F0E230A1F584B5806284BDC8BD59
:1004600034C0E730E9F0E83019F1E43049F5809123
:100470008000806280938000D0938B00C0938A00BC
:1004800024C084B5806884BDC7BD1FC08091800032
:10049000806880938000D0938900C093880015C045
:1004A0008091B00080688093B000C093B3000DC00D
:1004B0008091B00080628093B000C093B40005C00A
:1004C000C038D1050CF0B5CFAFCFDF91CF911F91E0
:1004D000089560E070E085E00E940A0260E070E04C
:1004E00086E00C940A020E94550F1F920F920FB6DD
:1004F0000F9211242F933F938F939F93AF93BF93AA
:100500008091660290916702A0916802B0916902A1
:100510003091650223E0230F2D3720F40196A11DB1
:10052000B11D05C026E8230F0296A11DB11D209321
:1005300065028093660290936702A0936802B0936D
:10054000690280916A0290916B02A0916C02B09155
:100550006D020196A11DB11D80936A0290936B02FA
:10056000A0936C02B0936D02BF91AF919F918F9158
:100570003F912F910F900FBE0F901F9018951F92D3
:100580000F920FB60F9211242F933F934F935F93C7
:100590006F937F938F939F93AF93BF93EF93FF934B
:1005A00082E792E00E943D01FF91EF91BF91AF91F0
:1005B0009F918F917F916F915F914F913F912F917B
:1005C0000F900FBE0F901F9018951F920F920FB6AD
:1005D0000F9211242F938F939F93EF93FF93E091AA
:1005E0008202F09183028081E0918802F091890279
:1005F00082FD12C0908180918B028F5F8F7320915A
:100600008C02821751F0E0918B02F0E0EE58FD4F22
:10061000958F80938B0201C08081FF91EF919F9114
:100620008F912F910F900FBE0F901F9018951F92D2
:100630000F920FB60F9211242F933F934F935F9316
:100640006F937F938F939F93AF93BF93EF93FF939A
:1006500060916E0270916F028091700290917102B0
:100660002AE037ED43E25CE30E94130D60936E02D3
:1006700070936F028093700290937102FF91EF91DB
:10068000BF91AF919F918F917F916F915F914F91AA
:100690003F912F910F900FBE0F901F901895CF9202
:1006A000DF92EF92FF92882321F1813009F0B7C0E9
:1006B00060E082E00E948F0783E090E00197F1F70D
:1006C00061E082E00E948F0783E290E00197F1F7FA
:1006D00060E082E00E948F070E94A3006B017C0112
:1006E00060934E0270934F02809350029093510298
:1006F00064C060E080E00E948F0783E090E0019793
:10070000F1F761E080E00E948F0783E290E00197BB
:10071000F1F760E080E00E948F070E94A3006B0168
:100720007C0160934E0270934F028093500290932D
:10073000510281E00E946607892B81F40E94A30088
:10074000DC01CB018C199D09AE09BF0981339547A6
:10075000A105B10570F380E395E763C00E94A30093
:100760006B017C0160934E0270934F0280935002A4
:100770009093510281E00E946607019709F041C001
:100780000E94A300DC01CB018C199D09AE09BF09B1
:1007900081339547A105B10568F385E092E041C03A
:1007A0000E94A300DC01CB018C199D09AE09BF0991
:1007B00081339547A105B10580F783E00E94660764
:1007C000892B71F30E94A3006B017C0160934E02A0
:1007D00070934F02809350029093510283E00E94E5
:1007E0006607019771F40E94A300DC01CB018C190C
:1007F0009D09AE09BF0981339547A105B10570F385
:10080000CCCF0E94A3006C197D098E099F092AE3B1
:1008100030E040E050E00E94CF0CC90102C08FEFF1
:100820009FEFFF90EF90DF90CF900895833081F09D
:1008300028F4813099F08230A1F008958730A9F032
:100840008830B9F08430D1F4809180008F7D03C06E
:10085000809180008F7780938000089584B58F7792
:1008600002C084B58F7D84BD08958091B0008F77DC
:1008700003C08091B0008F7D8093B00008950097F1
:1008800069F0FC0101900020E9F73197AF01481BA6
:10089000590BBC0182E792E00C94C80080E090E024
:1008A0000895CF93DF930E943F04EC018AEA91E020
:1008B0000E943F048C0F9D1FDF91CF9108952F92CE
:1008C0003F924F925F926F927F928F929F92AF92E0
:1008D000BF92CF92DF92EF92FF920F931F93CF932D
:1008E000DF93CDB7DEB7A2970FB6F894DEBF0FBE89
:1008F000CDBFC0901A03D0901B03E0901C03F09072
:100900001D0320E030E0A901C701B6010E947F0D60
:1009100081113AC08DEA91E00E94510481E00E9469
:100920004F038A3E914014F480E007C080E00E94AB
:100930004F038A3E9140BCF481E00E944F03BC010A
:10094000990F880B990B0E942E0E20E030E048ECA6
:1009500052E40E94840D60931603709317038093F2
:1009600018039093190380916E0290916F02A091E9
:100970007002B091710280931A0390931B03A093AD
:100980001C03B0931D0376C160916E0270916F02DB
:100990008091700290917102A70196010E94120D40
:1009A0006B017C012DEC3CEC4CEC5DE30E947F0D77
:1009B00087FD60C180916E0290916F02A0917002DC
:1009C000B091710280931A0390931B03A0931C03B0
:1009D000B0931D0380E00E944F038A3E91400CF5C6
:1009E0008090160390901703A0901803B0901903FD
:1009F00080E00E944F03BC01990F880B990B0E9465
:100A00002E0E20E030E048EC52E40E94840D9B0161
:100A1000AC01C501B4010E94120D4B015C0180E0E4
:100A200023C081E00E944F038A3E91400CF05BC0DE
:100A300081E00E944F03BC01990F880B990B0E9423
:100A40002E0E20E030E048EC52E40E94840D20910C
:100A500016033091170340911803509119030E9417
:100A6000120D4B015C0181E00E944F03BC01990F04
:100A7000880B990B0E942E0E20E030E048EC52E4E7
:100A80000E94840D609316037093170380931803DC
:100A900090931903A7019601C501B4010E94840D2A
:100AA00060931E0370931F03809320039093210390
:100AB0008CEA91E00E94510485EF91E00E943F048E
:100AC000C0901E03D0901F03E0902003F0902103FC
:100AD000A7019601C701B6010E94500F882341F07B
:100AE00080E092E01FC08EEB91E00E945104C2C0F2
:100AF00046015701E894B7F82FEF3FEF4FE75FE764
:100B0000C501B4010E94500F81110FC02FEF3FEFBC
:100B10004FE75FE7C501B4010E947F0D18162CF462
:100B200084E092E00E943F04A5C02FEF3FEF4FE723
:100B30005FE4C701B6010E94DE0E18161CF488E0BF
:100B400092E0F0CF2FEF3FEF4FE75FECC701B60128
:100B50000E947F0D87FDF3CF20E030E0A901C7019F
:100B6000B6010E947F0D87FF09C06DE282E792E027
:100B70000E945F01F7FAF094F7F8F0942AE037ED5D
:100B800043EA5BE3C701B6010E94130D4B015C0110
:100B90000E94FD0D6B017C010E942C0E9B01AC019B
:100BA000C501B4010E94120D4B015C0119A28E0116
:100BB0000F5D1F4F0AA3612E2AE0222E312C412CFB
:100BC000512CC701B601A20191010E94CF0C69010D
:100BD0007A01605DF80162938F01232B242B252B72
:100BE00081F7CF010E943F046EE282E792E00E940B
:100BF0005F0183E0F82E9AE0292E312C412C512CF4
:100C0000FA94FF20B9F120E030E040E251E4C50160
:100C1000B4010E94E30E4B015C010E94FD0D9B019B
:100C200040E050E019A20AA1162D762EC32ED42E34
:100C3000E52ECA01B901A20191010E94CF0C605DAD
:100C4000F80162938F01211531054105510589F79E
:100C5000CF010E943F04672D7C2D8D2D9E2D0E947B
:100C60002C0E9B01AC01C501B4010E94120D4B0179
:100C70005C01C6CF60911E0370911F038091200319
:100C800090912103A2960FB6F894DEBF0FBECDBFA0
:100C9000DF91CF911F910F91FF90EF90DF90CF9058
:100CA000BF90AF909F908F907F906F905F904F908C
:100CB0003F902F9008958F929F92AF92BF92CF92C4
:100CC000DF92EF92FF92882311F081E001C080E073
:100CD0000E944F03BC01990F880B990B0E942E0EA6
:100CE00020E030E048EC52E40E94840D4B015C01AE
:100CF0000E945F046B017C0160931E0370931F03CD
:100D0000809320039093210320E030E0A9010E940A
:100D1000DE0E2DEC3CEC4CEC5DE318169CF4C701A8
:100D2000B6010E94E30E2AE037ED43E25CE30E9445
:100D3000130D9B01AC01C501B4010E947F0D181673
:100D400024F11CC0C701B60190580E94E30E2AE0AE
:100D500037ED43E25CE30E94130D9B01AC01C5013A
:100D6000B4010E947F0D181684F020E030E0A90144
:100D7000C701B6010E947F0D882339F08CEA91E00B
:100D80000E9451048CE092E010C02DEC3CEC4CE44D
:100D90005EE3C501B4010E947F0D181654F08CEA81
:100DA00091E00E94510489E292E00E94510481E0A6
:100DB00001C080E0FF90EF90DF90CF90BF90AF90A8
:100DC0009F908F900895CF92DF92EF92FF92CF93F2
:100DD000DF93EC01603282E078070CF03DC077FDD4
:100DE00006C0653B71052CF064EB70E002C060E06A
:100DF00070E0898128E830E06901C81AD10887FDD0
:100E0000D394CC0CDD1CCC0CDD1C0D2C000CEE089E
:100E1000FF088A8128E532E0281B310987FD3395D8
:100E2000220F331F220F331FC901330FAA0BBB0B35
:100E30009C01AD012C193D094E095F09DB010E949F
:100E4000C70C24EB30E040E050E00E949D0CC20E45
:100E5000D31EE41EF51EB60138813C3080F5298191
:100E600088E890E0821B910927FD9395880F991FD0
:100E7000880F991F6817790784F08A8148E552E046
:100E8000481B510987FD5395440F551F440F551FAB
:100E9000CB01461757070CF4CA010297880F991F18
:100EA0004FB7F894232F30E0F901EE0FFF1F2E0FFC
:100EB0003F1FF901EE5DFC4F928381834FBFDF91AD
:100EC000CF91FF90EF90DF90CF900895CF93DF9375
:100ED000282F30E0F901E255FF4F8491F901E656E1
:100EE000FF4FD491F901EA57FF4FC491CC2391F001
:100EF00081110E941604EC2FF0E0EE0FFF1FE45862
:100F0000FF4FA591B491EC91ED2381E090E021F4A5
:100F100080E002C080E090E0DF91CF9108951F93C0
:100F2000CF93DF93282F30E0F901E255FF4F8491F2
:100F3000F901E656FF4FD491F901EA57FF4FC491EA
:100F4000CC23C1F0162F81110E941604EC2FF0E083
:100F5000EE0FFF1FEE58FF4FA591B4919FB7F89485
:100F6000111104C08C91D095D82302C0EC91DE2BD6
:100F7000DC939FBFDF91CF911F9108951F920F9235
:100F80000FB60F9211242F933F934F935F936F935C
:100F90007F938F939F93AF93BF93EF93FF93809132
:100FA000150387FF05C010928500109284001BC0B6
:100FB00020911503022E000C330B8091460390E024
:100FC0002817390784F480911503082E000C990B1B
:100FD000FC01EE0FFF1F8E0F9F1FFC01EE5DFC4F0B
:100FE000808186FD15C0809115038F5F8093150366
:100FF00020911503022E000C330B8091460390E0E4
:1010000028173907C4F4809115038C3064F113C09C
:1010100080911503082E000C990BFC01EE0FFF1FA9
:101020008E0F9F1FFC01EE5DFC4F808160E08F738F
:101030000E948F07D8CF80918400909185000496FC
:1010400080349C4918F480E49CE905C080918400B8
:1010500090918500049690938900809388008FEF8B
:10106000809315033BC020918400309185008091CE
:101070001503082E000C990BFC01EE0FFF1F8E0FBD
:101080009F1FFC01EE5DFC4F81819281820F931FB7
:10109000909389008093880080911503082E000C9E
:1010A000990BFC01EE0FFF1F8E0F9F1FFC01EE5DE1
:1010B000FC4F808186FF12C080911503082E000C22
:1010C000990BFC01EE0FFF1F8E0F9F1FFC01EE5DC1
:1010D000FC4F808161E08F730E948F07FF91EF9139
:1010E000BF91AF919F918F917F916F915F914F9140
:1010F0003F912F910F900FBE0F901F901895CF9397
:10110000DF9390E0FC01E656FF4F2491FC01EA5783
:10111000FF4F8491882361F190E0880F991FFC01B3
:10112000E859FF4FC591D491FC01EE58FF4FA591AE
:10113000B491611109C09FB7F894888120958223EA
:101140008883EC912E230BC0623061F49FB7F89432
:101150008881322F309583238883EC912E2B2C931A
:101160009FBF06C08FB7F894E8812E2B28838FBFCE
:10117000DF91CF9108951F93CF93DF93EC01162F4A
:1011800088818C3008F050C061E0812F0E947F0878
:101190008881E82FF0E09F01220F331FE20FF31F39
:1011A000EE5DFC4F1F739081907C192B10839EE89D
:1011B000998394E69A836CE00E94000D9CE0899FDD
:1011C000B001112440E050E09B01240F351FF901CC
:1011D000EE0FFF1F2E0F3F1FF901EE5DFC4F9081B8
:1011E00096FD16C04F5F5F4F4C30510569F7811176
:1011F0000FC01092800082E08093810010928500E1
:1012000010928400B19A80916F00826080936F0089
:10121000E881F0E0CF01880F991FE80FF91FEE5D1C
:10122000FC4F8081806480838881DF91CF911F9102
:101230000895789484B5826084BD84B5816084BD4E
:1012400085B5826085BD85B5816085BD80916E0064
:10125000816080936E001092810080918100826095
:1012600080938100809181008160809381008091D2
:1012700080008160809380008091B10084608093C1
:10128000B1008091B00081608093B00080917A00BD
:10129000846080937A0080917A00826080937A00E3
:1012A00080917A00816080937A0080917A008068D2
:1012B00080937A001092C100549A61E085E00E9408
:1012C0007F0861E086E00E947F0862E08EE00E9475
:1012D0007F0862E08FE00E947F0862E080E10E9468
:1012E0007F086AE070E08FE093E00E94BB0869E04D
:1012F00070E082E193E00E94BB0861E080E00E9420
:101300007F0860E081E00E947F0861E082E00E9447
:101310007F0860E083E00E947F0884B1896084B91F
:10132000579A249A259A87B187B9E0918202F09161
:10133000830282E08083E0917E02F0917F0283E06D
:101340008083E0918002F091810280E4808310929A
:101350008A02E0918602F091870286E08083E09124
:101360008402F0918502808180618083E091840213
:10137000F0918502808188608083E0918402F09101
:101380008502808180688083E0918402F0918502EB
:1013900080818F7D8083F8941092B0001092B1000C
:1013A0001092B2008BE98093B3008091B100876006
:1013B0008093B1008091B00082608093B0008091F2
:1013C000700082608093700078940FEF10E083E1EA
:1013D0000E948C009C01245F31402831310520F4AB
:1013E000E12C92E0F92E01C07C010E945F044B01C8
:1013F0005C0181E00E945B06C82F20E030E0A9017B
:10140000C501B4010E947F0D87FF0AC0CC2341F0C3
:1014100060E070E086E00E940A026FEF70E038C082
:1014200080E00E945B06C82F20E030E0A901C501E2
:10143000B4010E94DE0E181654F4CC2341F060E093
:1014400070E085E00E940A026FEF70E042C0E701A1
:10145000F7FC2196D595C7950E94FA0181111CC011
:101460000E945B06811120C060E070E086E00E946F
:101470000A02CF3F81E0D80734F4CF3FD1052CF4E6
:10148000CFEFD0E002C0CEEFD1E0BE016F5F7109B7
:1014900085E00E940A0223C00E94FA018130D9F43B
:1014A0000E945B06882319F00E94690218C060E060
:1014B00070E085E00E940A02D7FF02C0C0E0D0E0E1
:1014C000CF3FD10519F014F0CFEFD0E0B8016C1B7D
:1014D0007D0B86E0DECF0E94FA01823029F38091F5
:1014E000560281110BC00E945F040E94F60D70939A
:1014F00055026093540281E08093560282E10E947B
:101500008C00BC01845F9140489710F460E072E069
:10151000072E000C880B990B0E942E0E20E030E065
:1015200048E051E40E94840D0E94F60D625E7F4FF8
:10153000709353026093520280915402909155022D
:1015400097FF07C0809154029091550297FFD2C037
:1015500006C080E00E945B068111F4CF05C081E0E7
:101560000E945B068111C6C06091520270915302C5
:101570006E31710534F0673971052CF066E970E061
:1015800002C06EE170E082E193E00E94E3060E94F7
:10159000FA01882341F00E94FA01823021F00E9472
:1015A000FA01813089F460915202709153026E31D8
:1015B00071050CF4AAC06739710514F066E970E092
:1015C0008FE093E00E94E3060E94DD01823008F084
:1015D00059C0C0905F02D0906002E0906102F0902C
:1015E000620220E030E0A901C701B6010E947F0D30
:1015F00081111AC082E191E00E94510480916E0233
:1016000090916F02A0917002B091710280935F027D
:1016100090936002A0936102B09362020E94ED0178
:1016200081E080935E0232C060916E0270916F0221
:101630008091700290917102A70196010E94120D93
:1016400023E333E343E35FE30E94DE0E1816F4F472
:1016500080915E02882319F00E94D80102C00E9486
:10166000ED0180916E0290916F02A0917002B09195
:10167000710280935F0290936002A0936102B09325
:10168000620204C00E94D80110925E028EE00E94A5
:101690006607892BE9F55C9A80917C00807F8093B6
:1016A0007C0080917C00836080937C0080917A0034
:1016B000806480937A0080917A0086FDFCCFC0918F
:1016C0007800D0917900D0936402C093630280E1E6
:1016D0000E946607892BF1F08FE00E94660780E187
:1016E0000E946607892B79F18FE00E946607892B9B
:1016F000A1F029C06AE570E082E193E00E94E30670
:101700006AE570E08FE093E040CF6EE170E058CF83
:101710005C98C2CFCF3FD14014F75F9A0E945F041C
:1017200020E030E0A9010E94DE0E181674F40E9439
:10173000FA01813051F42C9A8EEF91E00E9451040D
:101740008AE291E02CC05F98E9CF0E945F0420E01C
:1017500030E0A9010E947F0D87FF0CC00E94FA01B2
:10176000811108C02C9A8EEF91E00E94510485E40B
:1017700091E015C00E945F0420E030E0A9010E94C2
:10178000DE0E181604F580E00E945B068823D9F06F
:101790002C9A8EEF91E00E94510482E691E00E9423
:1017A00051040E945F0420E030E0A9010E947F0DF7
:1017B00087FF48C00E94FA01813009F043C02D9A8A
:1017C0000E94CE0104CE0E945F0420E030E0A90117
:1017D0000E947F0D87FF0DC081E00E945B06882379
:1017E00041F02C9A8EEF91E00E94510481E891E043
:1017F000D6CF80E00E945B0681111AC081E00E9472
:101800005B06811115C00E945F0420E030E0A90151
:101810000E947F0D811114C00E94FA01823081F470
:101820002C9A8EEF91E00E94510481EA91E0B7CFAB
:101830002C9A8EEF91E00E94510487E991E0AFCF9E
:101840002C98AFCF2D98BCCF1092750210927402D5
:1018500088EE93E0A0E0B0E0809376029093770268
:10186000A0937802B093790284E091E090937302A0
:101870008093720285EC90E090937F0280937E02C9
:1018800084EC90E0909381028093800280EC90E061
:10189000909383028093820281EC90E09093850282
:1018A0008093840282EC90E090938702809386027A
:1018B00086EC90E0909389028093880210928B02CC
:1018C00010928C0210928D0210928E02809146032B
:1018D0008C30A0F491E0980F90934603809312030C
:1018E00090E0FC01EE0FFF1F8E0F9F1FFC01EE5DCD
:1018F000FC4F88EB9BE09283818303C08FEF809342
:101900001203809146038C30A0F491E0980F9093DD
:10191000460380930F0390E0FC01EE0FFF1F8E0F34
:101920009F1FFC01EE5DFC4F88EB9BE0928381835F
:1019300008958FEF80930F030895052E97FB1EF4F3
:1019400000940E94B40C57FD07D00E94CF0C07FCF6
:1019500003D04EF40C94B40C5095409530952195DD
:101960003F4F4F4F5F4F08959095809570956195CB
:101970007F4F8F4F9F4F08950E94F10CA59F900DB0
:10198000B49F900DA49F800D911D11240895B7FF61
:101990000C94BC0C0E94BC0C821B930B0895A1E21A
:1019A0001A2EAA1BBB1BFD010DC0AA1FBB1FEE1FD9
:1019B000FF1FA217B307E407F50720F0A21BB30B24
:1019C000E40BF50B661F771F881F991F1A9469F7A0
:1019D00060957095809590959B01AC01BD01CF01FC
:1019E0000895A29FB001B39FC001A39F700D811DF8
:1019F0001124911DB29F700D811D1124911D089518
:101A0000991B79E004C0991F961708F0961B881F50
:101A10007A95C9F780950895EE0FFF1F0590F49110
:101A2000E02D09945058BB27AA270E942A0D0C9438
:101A3000A40E0E94960E38F00E949D0E20F039F4FC
:101A40009F3F19F426F40C94930E0EF4E095E7FBF7
:101A50000C948D0EE92F0E94B50E58F3BA17620749
:101A600073078407950720F079F4A6F50C94D70E38
:101A70000EF4E0950B2EBA2FA02D0B01B9019001A9
:101A80000C01CA01A0011124FF27591B99F0593FED
:101A900050F4503E68F11A16F040A22F232F342F35
:101AA0004427585FF3CF469537952795A795F04083
:101AB0005395C9F77EF41F16BA0B620B730B840B98
:101AC000BAF09150A1F0FF0FBB1F661F771F881F50
:101AD000C2F70EC0BA0F621F731F841F48F48795A8
:101AE00077956795B795F7959E3F08F0B0CF93959A
:101AF000880F08F09927EE0F9795879508950E9413
:101B0000690E08F481E008950E94980D0C94A40ECB
:101B10000E949D0E58F00E94960E40F029F45F3FFF
:101B200029F00C948D0E51110C94D80E0C94930E38
:101B30000E94B50E68F39923B1F3552391F3951BD9
:101B4000550BBB27AA2762177307840738F09F5FDE
:101B50005F4F220F331F441FAA1FA9F335D00E2E4B
:101B60003AF0E0E832D091505040E695001CCAF7B8
:101B70002BD0FE2F29D0660F771F881FBB1F26177B
:101B800037074807AB07B0E809F0BB0B802DBF0152
:101B9000FF2793585F4F3AF09E3F510578F00C9421
:101BA0008D0E0C94D80E5F3FE4F3983ED4F38695E7
:101BB00077956795B795F7959F5FC9F7880F911D42
:101BC0009695879597F90895E1E0660F771F881F2E
:101BD000BB1F621773078407BA0720F0621B730BE1
:101BE000840BBA0BEE1F88F7E09508950E94FD0D57
:101BF0006894B1110C94D80E08950E94BD0E88F01F
:101C00009F5798F0B92F9927B751B0F0E1F0660FC0
:101C1000771F881F991F1AF0BA95C9F714C0B13001
:101C200091F00E94D70EB1E008950C94D70E672F63
:101C3000782F8827B85F39F0B93FCCF38695779530
:101C40006795B395D9F73EF4909580957095619519
:101C50007F4F8F4F9F4F0895E89409C097FB3EF444
:101C600090958095709561957F4F8F4F9F4F9923E9
:101C7000A9F0F92F96E9BB279395F6958795779567
:101C80006795B795F111F8CFFAF4BB0F11F460FF27
:101C90001BC06F5F7F4F8F4F9F4F16C0882311F07F
:101CA00096E911C0772321F09EE8872F762F05C093
:101CB000662371F096E8862F70E060E02AF09A952E
:101CC000660F771F881FDAF7880F9695879597F923
:101CD0000895990F0008550FAA0BE0E8FEEF1616BD
:101CE0001706E807F907C0F012161306E407F50710
:101CF00098F0621B730B840B950B39F40A2661F084
:101D0000232B242B252B21F408950A2609F4A14026
:101D1000A6958FEF811D811D089597F99F6780E833
:101D200070E060E008959FEF80EC089500240A942D
:101D30001616170618060906089500240A941216A6
:101D40001306140605060895092E0394000C11F4D9
:101D5000882352F0BB0F40F4BF2B11F460FF04C086
:101D60006F5F7F4F8F4F9F4F089557FD9058440FDF
:101D7000551F59F05F3F71F04795880F97FB991FEA
:101D800061F09F3F79F087950895121613061406A7
:101D9000551FF2CF4695F1DF08C016161706180634
:101DA000991FF1CF86957105610508940895E8940F
:101DB000BB2766277727CB0197F908950E94690E04
:101DC00008F48FEF08950E94F60E0C94A40E0E9462
:101DD000960E38F00E949D0E20F0952311F00C9481
:101DE0008D0E0C94930E11240C94D80E0E94B50EF7
:101DF00070F3959FC1F3950F50E0551F629FF0015E
:101E0000729FBB27F00DB11D639FAA27F00DB11D76
:101E1000AA1F649F6627B00DA11D661F829F2227FF
:101E2000B00DA11D621F739FB00DA11D621F839F86
:101E3000A00D611D221F749F3327A00D611D231F5C
:101E4000849F600D211D822F762F6A2F11249F57AA
:101E500050409AF0F1F088234AF0EE0FFF1FBB1FAD
:101E6000661F771F881F91505040A9F79E3F51056C
:101E700080F00C948D0E0C94D80E5F3FE4F3983EE6
:101E8000D4F3869577956795B795F795E7959F5F16
:101E9000C1F7FE2B880F911D9695879597F90895A8
:101EA0000E94690E880B990B089581E090E0F894E8
:081EB0000C945A0FF894FFCFC7
:101EB800000000005F01C800F600AC012701050121
:101EC80019014E6F20427566666572656420546913
:101ED8006D652073746F7265640064726976696EEB
:101EE8006720666F7277617264202D3E206272618E
:101EF8006B696E670064726976696E6720626163F8
:101F08006B7761726473202D3E206272616B696E1B
:101F1800670064726976696E6720666F72776172AE
:101F2800647320616E6420636F6C6C6973696F6E93
:101F38000064726976696E67206261636B776172AB
:101F4800647320616E6420636F6C6C6973696F6E73
:101F5800007374616E64696E67000D0A004E6F202D
:101F680062756666657265642074696D65004572A0
:101F7800726F723A20426F746820536F6E61727389
:101F8800206F7574206F662072616E67652E20520F
:101F9800657475726E696E67206C61737420766102
:101FA8006C75652E0056656C6F636974793A20000C
:101FB8006E616E00696E66006F7666005761726EBC
:101FC800696E673A20436F6C6C6973696F6E206144
:101FD8007070656172696E67005761726E696E67CD
:101FE8003A205374616E64696E6720696E20667268
:0E1FF8006F6E74206F6620612077616C6C0044
:00000001FF
